:020000040000fa
:080000000002040000000000f2
:020000040000fa
:04000800b60300003b
:020000040000fa
:04000c00b603000037
:020000040000fa
:04001000b603000033
:020000040000fa
:04001400b60300002f
:020000040000fa
:04001800b60300002b
:020000040000fa
:04001c00b603000027
:020000040000fa
:04002000b603000023
:020000040000fa
:04002400b60300001f
:020000040000fa
:04002800b60300001b
:020000040000fa
:04002c00b603000017
:020000040000fa
:04003000b603000013
:020000040000fa
:0400340002030000c3
:020000040000fa
:04003800b60300000b
:020000040000fa
:04003c00b603000007
:020000040000fa
:04004000b603000003
:020000040000fa
:04004400b6030000ff
:020000040000fa
:04004800fa020000b8
:020000040000fa
:04004c00b6030000f7
:020000040000fa
:04005000b6030000f3
:020000040000fa
:040054007203000033
:020000040000fa
:040058004803000059
:020000040000fa
:04005c00220300007b
:020000040000fa
:04006000b6030000e3
:020000040000fa
:04006400b6030000df
:020000040000fa
:04006800b6030000db
:020000040000fa
:04006c00b6030000d7
:020000040000fa
:04007000b6030000d3
:020000040000fa
:04007400b6030000cf
:020000040000fa
:04007800b6030000cb
:020000040000fa
:04007c00b6030000c7
:020000040000fa
:04008000b6030000c3
:020000040000fa
:04008400b6030000bf
:020000040000fa
:04008800b6030000bb
:020000040000fa
:04008c00b6030000b7
:020000040000fa
:04009000b6030000b3
:020000040000fa
:040094000a0300005b
:020000040000fa
:04009800b6030000ab
:020000040000fa
:04009c00b6030000a7
:020000040000fa
:0400a000b6030000a3
:020000040000fa
:0400a400b60300009f
:020000040000fa
:0400a800b60300009b
:020000040000fa
:0400ac00b603000097
:020000040000fa
:0400b000b603000093
:020000040000fa
:0400b400b60300008f
:020000040000fa
:0400b800b60300008b
:020000040000fa
:0400bc00b603000087
:020000040000fa
:0400c000b603000083
:020000040000fa
:0400c400b60300007f
:020000040000fa
:0400c800b60300007b
:020000040000fa
:0400cc00b603000077
:020000040000fa
:0400d000b603000073
:020000040000fa
:0400d400b60300006f
:020000040000fa
:0400d800b60300006b
:020000040000fa
:0400dc00b603000067
:020000040000fa
:0400e000b603000063
:020000040000fa
:0400e400b60300005f
:020000040000fa
:0400e800b60300005b
:020000040000fa
:0400ec00b603000057
:020000040000fa
:0400f000b603000053
:020000040000fa
:0400f400b60300004f
:020000040000fa
:0400f800b60300004b
:020000040000fa
:0400fc00b603000047
:020000040000fa
:04010000b603000042
:020000040000fa
:04010400b60300003e
:020000040000fa
:04010800b60300003a
:020000040000fa
:04010c00b603000036
:020000040000fa
:04011000b603000032
:020000040000fa
:04011400b60300002e
:020000040000fa
:04011800b60300002a
:020000040000fa
:04011c00b603000026
:020000040000fa
:04012000b603000022
:020000040000fa
:04012400b60300001e
:020000040000fa
:04012800b60300001a
:020000040000fa
:04012c00b603000016
:020000040000fa
:04013000b603000012
:020000040000fa
:04013400b60300000e
:020000040000fa
:04013800b60300000a
:020000040000fa
:04013c00b603000006
:020000040000fa
:04014000b603000002
:020000040000fa
:04014400b6030000fe
:020000040000fa
:04014800b6030000fa
:020000040000fa
:04014c00b6030000f6
:020000040000fa
:04015000b6030000f2
:020000040000fa
:04015400b6030000ee
:020000040000fa
:04015800b6030000ea
:020000040000fa
:04015c00b6030000e6
:020000040000fa
:04016000b6030000e2
:020000040000fa
:04016400b6030000de
:020000040000fa
:04016800b6030000da
:020000040000fa
:04016c00b6030000d6
:020000040000fa
:04017000b6030000d2
:020000040000fa
:04017400b6030000ce
:020000040000fa
:04017800b6030000ca
:020000040000fa
:04017c00b6030000c6
:020000040000fa
:04018000b6030000c2
:020000040000fa
:04018400b6030000be
:020000040000fa
:04018800b6030000ba
:020000040000fa
:04018c00b6030000b6
:020000040000fa
:04019000b6030000b2
:020000040000fa
:04019400b6030000ae
:020000040000fa
:04019800b6030000aa
:020000040000fa
:04019c00b6030000a6
:020000040000fa
:0401a000b6030000a2
:020000040000fa
:0401a400b60300009e
:020000040000fa
:0401a800b60300009a
:020000040000fa
:0401ac00b603000096
:020000040000fa
:0401b000b603000092
:020000040000fa
:0401b400b60300008e
:020000040000fa
:0401b800b60300008a
:020000040000fa
:0401bc00b603000086
:020000040000fa
:0401c000b603000082
:020000040000fa
:0401c400b60300007e
:020000040000fa
:0401c800b60300007a
:020000040000fa
:0401cc00b603000076
:020000040000fa
:0401d000b603000072
:020000040000fa
:0401d400b60300006e
:020000040000fa
:0401d800b60300006a
:020000040000fa
:0401dc00b603000066
:020000040000fa
:0401e000b603000062
:020000040000fa
:0401e400b60300005e
:020000040000fa
:0401e800b60300005a
:020000040000fa
:0401ec00b603000056
:020000040000fa
:0401f000b603000052
:020000040000fa
:0401f400b60300004e
:020000040000fa
:0401f800b60300004a
:020000040000fa
:0401fc00b603000046
:020000040000fa
:04020000b603000041
:020000040000fa
:04020400b60300003d
:020000040000fa
:04020800b603000039
:020000040000fa
:04020c00b603000035
:020000040000fa
:04021000b603000031
:020000040000fa
:04021400b60300002d
:020000040000fa
:04021800b603000029
:020000040000fa
:04021c00b603000025
:020000040000fa
:04022000b603000021
:020000040000fa
:04022400b60300001d
:020000040000fa
:04022800b603000019
:020000040000fa
:04022c00b603000015
:020000040000fa
:04023000b603000011
:020000040000fa
:04023400b60300000d
:020000040000fa
:04023800b603000009
:020000040000fa
:04023c00b603000005
:020000040000fa
:04024000b603000001
:020000040000fa
:04024400b6030000fd
:020000040000fa
:04024800b6030000f9
:020000040000fa
:04024c00b6030000f5
:020000040000fa
:04025000b6030000f1
:020000040000fa
:04025400b6030000ed
:020000040000fa
:04025800b6030000e9
:020000040000fa
:04025c00b6030000e5
:020000040000fa
:04026000b6030000e1
:020000040000fa
:04026400b6030000dd
:020000040000fa
:04026800b6030000d9
:020000040000fa
:04026c00b6030000d5
:020000040000fa
:04027000b6030000d1
:020000040000fa
:04027400b6030000cd
:020000040000fa
:04027800b6030000c9
:020000040000fa
:04027c00b6030000c5
:020000040000fa
:04028000b6030000c1
:020000040000fa
:100400008f1c21000eff27000e0188000000000055
:10041000000020000000e000020032000001200087
:100420002002880014000700d20007000000e0004e
:1004300003003a00202221000100200002003700c2
:100440000000200001002000810f70000100320038
:100450000f000700000020000000e0000200320052
:1004600000000200000000002e1302000000000047
:100470000040da000000fe00a00120000000e000c3
:1004800002003200002020009001880000000600d9
:10049000a1028800800478000000eb001f003700f4
:1004a000e284440054a0b4009905ba00e2844400f8
:1004b00054a0b4009906ba00e284440054a0b400e9
:1004c0000006eb00476fde00fd07b200ae018800ba
:1004d000636ce10003003a000ad801000000eb0061
:1004e0000e003700606ce10008003a00004deb00a0
:1004f0000a05e800020039003420ec000af0a000f0
:100500008b05e900f9ff3e00040037006168e10057
:10051000010032000086eb000b00070019c7ba008b
:100520000e04e0001905ba0003003a000a00e000da
:10053000dbff3a0000000600fe07b200ae028800b2
:100540008a047800f5ff37000cd0a300e20f4d00bd
:100550001c003b0089027800354dba000a05e8000e
:10056000020039003420ec000af0a0008b05e900fd
:100570000f003200254dba000a05e80002003900dc
:100580003420ec000af0a0008b05e90008003200de
:100590000c00e0000600320015cdba000a05e800a4
:1005a000020039003420ec000af0a0008b05e900bd
:1005b0008984e80054a0b4000b00e000e2ff3a0098
:1005c000000006009902ba00055d78008b05e9007d
:1005d000f7ff3200c82ade00055d78008b05e900d0
:1005e000f3ff32000c00e000f1ff320019ddba0029
:1005f000eeff37000000fa000108a9000080fa00b1
:10060000004006000000fa000068a9000080fa001f
:1006100000400600809fbe000000fa000368a900a9
:10062000708080008180800061004000e080480090
:1006300070808800818088000080fa004f00be0032
:1006400000400600809fbe000000fa0001a8a9003b
:100650000118800020002100010878001118800096
:10066000200021000080e8000108780021188000a7
:1006700020002100640040000108780010c0b30091
:100680000af0b7000080fa004f00be0000400600ec
:100690003600f800809fbe00829fbe00849fbe008f
:1006a000869fbe000000fa000188a900e18080005a
:1006b00010818000808f5000020032007d0607000c
:1006c000010037001e70ef000080fa004f03be00eb
:1006d0004f02be004f01be004f00be003600f900c1
:1006e000004006003600f800809fbe00829fbe00da
:1006f000849fbe00869fbe000000fa000168a9002a
:1007000010118000640060000000e0000100320071
:100710002242a90010118000620060000000e00089
:10072000060032002222a9000500370030118000a7
:1007300000407800c70607000100370000000000f5
:1007400010118000610060000000e000f7ff3a0037
:100750000080fa004f03be004f02be004f01be00f2
:100760004f00be003600f900004006000040da00ed
:100770000000fe000000050014002000ba0237004f
:10078000f4ff2f00b80237000001be003a00070056
:100790000470a70003f0a1006509b1001600320043
:1007a0000d0035006828e10006003500f0ff2f003d
:1007b000f1ff27000300e00013003b0001002800c8
:1007c0000000050000004000818048008502e9002b
:1007d000fcff3a0008003700f88f420002003c009e
:1007e0008000eb00000005008100d1000080d300f4
:1007f0008502e800fcff3a000300e00002003b0035
:1008000060001000e0801800000006000001be003b
:10081000190007000470a70003f0a10003f8a3006b
:1008200013003a006509b1001000320009003500dc
:100830006928e100020035000100280000000500e1
:1008400000004000818048008502e900fcff3a007a
:1008500000000600f88f4200050035008100d1003d
:100860000080d3008502e800fcff3a00000006008b
:100870008000eb0000000500c70ade00f107b200af
:10088000f50fb20008003200e1cf42000200320052
:100890000170a00024000500810f700001003200eb
:1008a0000408050044000500810f700002003a00b2
:1008b000140005008502e9000000400081c04800e6
:1008c000fcff3b000170a00024000500889fbe00d3
:1008d0008a9fbe008c9fbe001b0020000202be004b
:1008e0000586680006002800060666004709de0047
:1008f000f20fb200820032000243e80080003200b2
:10090000c729de00f30fb2007d0032000343e80088
:100910007b003200f107b2000170a000f507b200c1
:100920000570a000c708dd004903de008680700066
:100930004700dd00c72add004923de008682720001
:100940004722dd0003055100040350008583580051
:100950000300310000004000818048000a05e900e2
:100960008c1f78008a9fbe000400500085805800cc
:100970000402420085824a00000040008180480055
:100980000005eb000004be006033b8000406be00a2
:100990000d48e10056003100110009004dccd8008f
:1009a0000c01b8000d02b8008481410060824a0049
:1009b0008283530003045c0084845c0060055d0056
:1009c0000a00e00025003a00800578000d40e100b3
:1009d0004900310088007800070078001100090004
:1009e0004d88d8000c01b8000d02b8008481410088
:1009f00060824a006003110083835b0004045c0092
:100a0000e0845c000900e00021003a004f01be00d4
:100a10000300e0002b003200e301600007067300d2
:100a20008c81710001003200640070004200de0021
:100a30004e5edd000c007000c258de0001e0a00038
:100a400083010700cf017800818071004f06be004e
:100a50004f05be004f04be00000006008c8343001b
:100a60000d044c00e0844c0060054d000000e900de
:100a70000a00e000d4ff32008c8343000d044c00d8
:100a8000e0844c0060054d000000e900ceff370017
:100a90000c0343008d834b0060044c00e0844c0049
:100aa0000000e9000900e000d8ff32000c03430019
:100ab0008d834b0060044c00e0844c000000e90092
:100ac000d2ff37004200de004e5edd000c007000f9
:100ad000c258de0001e0a000cf0178000300e00072
:100ae000daff320060001000e0801800d7ff370006
:100af000f0ff2f00aaff3700f0ff2f00b9ff3700eb
:100b00000404be002f010700870678000004fd00e2
:100b10008104fd002b010700078366000678a3000f
:100b2000030032000960a7000800be002c00370057
:100b30000d78a300020032000800be002800370034
:100b40000778a30026003a0001f0a10009f0a100f7
:100b50000668a30003003200f1ff2700f0ff2f001a
:100b6000baff37000d68a300030032000800be0082
:100b70008c807000b5ff37000768a30007003a00bb
:100b80000648a30003003200f1ff2700f0ff2f000a
:100b9000aeff37000d48a300030032006000b8002c
:100ba0008c807000a9ff37000748a30004003200c2
:100bb00001f82700000020008c807000a3ff3700a0
:100bc000760107000004fd008104fd0002057800a5
:100bd000720107000802be008a01780059ff370041
:100be0000160a000120220004281880097ff3700b8
:100bf0000100e000120032000500e00010003200a9
:100c0000889fbe008a9fbe008c9fbe000006eb003e
:100c100001f8a3000300320060001000e08018001b
:100c20000cf0a00005f8a3000300320060021200df
:100c3000e0821a000cf0a2008005eb0041ff3700b3
:100c40006000b80002000500038368000700280068
:100c500007036300470ade000480a100c71ade0014
:100c60000580a100f70f20000720e10042003200bc
:100c70000728e10040003200889fbe008a9fbe0026
:100c80008c1f7800f107b200f307b2000400e00007
:100c9000640032000170a0000500e000680032002e
:100ca0000370a00085054200eb07b1000204b80004
:100cb0000302b8008484440060854a00020ab80038
:100cc000848444000a854a00030ab80004054500ec
:100cd000040033000804d0008984d2000a85d200c1
:100ce0008b05e9006158e1003d003500021020004d
:100cf000090161000308200089816100f7072000d5
:100d00008783640008867300c84cde00c853dd008a
:100d1000878474004855de000300e00006003200be
:100d200082037600040032008904e80060054d006b
:100d30000a88a3000c003a00f70f20000758e100d2
:100d400044003d000a70a100c75ddd000a85750002
:100d50008a007300090078004f0678004f05be0036
:100d60004f04be00000006000a05d1008984d300ac
:100d70008b05e800f0ff3700881f78000604780034
:100d800090000700070278000001fd008101fd00ce
:100d90008c00070087027800850372000778a300a3
:100da000050032000001fd008101fd009f000700e9
:100db0004f04780000000600850372000748a30076
:100dc00003003200f0ff2f00f1ff2700f8ff37008b
:100dd0000000200001f8270088807000f4ff370031
:100de000880178004848dd00808171004848de00b5
:100df000c850dd0001007000c850de000604780015
:100e00000b0178001600070088807000d2ff3700c1
:100e10000500e00005003200170020003a0007003e
:100e20009dff370081037000f9ff3a0086007800cb
:100e30004f0678004f05be004f04be0000000500bd
:100e400083037100f9ff3200270020002e00070005
:100e500094ff370001f8270086807000f4ff370008
:100e60000100e00026003200610111007810e1006d
:100e700023003c006022b8007010e100040035003f
:100e800080027800010078008000eb0070015100c2
:100e90000200e0000900340070031100062add00a2
:100ea000822ade008603dd00878272000200de00f7
:100eb000860bdd00070070008208de00848171006f
:100ec000f4ff27000482620084817100040028007e
:100ed000848262006102600005f0a6000000060046
:100ee00004827100070032000000e800e080480042
:100ef000000006000002be006000b800efff3700ef
:100f00006000b80000000600889fbe000004eb00ef
:100f10006138e10016003a000100e00008003a00e4
:100f2000c800de004800dd00880020000100e0006d
:100f300003003a00c800de004800dd0068044400f9
:100f40008184cf00e9845400060034008908dd0064
:100f5000f08314008703de00878070000900dd0045
:100f600009044400610214004f04be0000000600a2
:100f70000300e00008003a00c811de004811dd005f
:100f8000880020000300e00003003a00c811de00e2
:100f90004811dd00680444008384cf00e9845400d4
:100fa000060034008919dd00f08314008713de0089
:100fb000878171000911dd0009044400e102140079
:100fc000e9ff37002700200001f0a70017002000ec
:100fd000470bde00f60fb200040032000643e800c3
:100fe0000a0032004702b300000006000103780047
:100ff000f607b2000603700002003a000703b300d0
:10100000000006008702b30000000600010378001c
:10101000f607b20006037000020032000770a0005d
:10102000000006000760a000000006000478a3008e
:10103000040032000578a300030032000168a30019
:1010400001003a000200be000160a000000006009e
:1010500081017000270032008002eb0001f8a3003c
:101060000300320060001000e0801800150020002e
:10107000f40720000202420020003400f7032000a1
:1010800087036000060420000003630002082000bc
:10109000000161004700de00c909dd000080710029
:1010a000c708de000600e000080032008703710078
:1010b000060032001000b0000180b0000188a300db
:1010c00002003200c108de000402e800f107b200ad
:1010d000f30f20000320e10003003d004722dd0064
:1010e000810072002900370001f827000000eb00a2
:1010f000260037006000b8000000060068021200f9
:101100007f20e100020034006000b8001f003700bb
:101110006011b8007020e100040035008001780003
:10112000010078008000eb00700252000400e00033
:1011300009003400f00312000719dd008419de00f5
:101140000703dd00868171000400de00070bdd006f
:10115000060070008408de00f7ff27008383630029
:1011600087037100060028000303630007003200b4
:101170000700e00003003a00610160000281730093
:10118000020032001000b0000180b0000500a6008f
:101190000000060001f0a000000006004f0ade007b
:1011a0004709de00f107b200f20fb2000b00320077
:1011b000f207b1000170a000c708dd00c901de0020
:1011c000838070004700dd000400a60000000600d8
:1011d00060001000e080180000000600810f700021
:1011e00001003a00000006008182cf000500e00007
:1011f00010003e008082cf00ee8242007028e100a5
:101200000400390007003e00800078000000eb0079
:101210000e003700708312008600de000500dd003e
:101220000a003700708352008600dd000000eb00ea
:1012300006003700e28252008508dd00708312004c
:101240000603de00868070000500dd007507b00033
:101250000501ea000400a60000000600600010007e
:10126000e080180000000600889fbe008a9fbe0034
:10127000841f7800170007004f007800110033002a
:10128000f0ff2f00838f6c0006003b000405650013
:101290000a00a7000800370009f0a600100020008f
:1012a00008003700820f5400838f5c000300390070
:1012b0001000200001003e000000200009f0a700ff
:1012c0000000ea004f05be004f04be000000e00031
:1012d000000006000004be0067fd07000003be001a
:1012e0000405be000200be0063fd0700844f7500c8
:0412f00000000600f4
:020000040000fa
:1012f400420000006f0000006e0000006a00000061
:1013040075000000720000007a8900007c890000ea
:101314007e890000808900007c89000082890000a9
:0413240084890000b8
:020000040000fa
:101328000400fa00881f7800008fbe0021088000a2
:10133800f0fc2f0000806000200888001e01780063
:101348009e0190000068290081c124005dfd07000e
:1013580018c0b30002f02f00f377240006fd070041
:101368000000e00001003c000044eb000804e0003d
:101378005400320021088000f0fc2f00008060003b
:101388000040a000200888001e0178009e019000ff
:101398000068290081c124004afd070002002000de
:1013a8000310240047fd070018c0b30002f02f0007
:1013b800f3772400f0fc07000000e00001003c0087
:1013c8000044eb000804e0003200320021088000ed
:1013d800f0fc2f00008060000050a000200888006a
:1013e8001e0178009e0190000068290081c1240038
:1013f80034fd0700020020000328240031fd070007
:1014080018c0b30002f02f00f3772400dafc0700bd
:101418000000e00001003c000044eb000804e0008c
:101428001000320021088000000320000100700035
:10143800200888001e0178009e019000006829009d
:1014480081c124001ffd070002002000033824008a
:101458001cfd0700cafc070000007800100888007f
:10146800200037001e0178009e01900000682900c6
:1014780081c1240013fd0700020020000328240076
:1014880010fd0700befc0700000078001008880067
:10149800140037001e0178009e01900000682900a2
:1014a80081c1240007fd070002002000031024006a
:1014b80004fd0700b2fc070000007800100888004f
:1014c800080037001e0178009e019000006829007e
:1014d80081c12400fbfc0700a9fc0700000078007c
:1014e800100888004f0478000080fa000000060009
:1014f8000400fa00881f7800008fbe00f108800001
:10150800f0fc2f0000806000f00888001e017800c1
:101518009e0190000068290081c12400e9fc0700b1
:1015280018c0b30002f02f00f377240092fc0700e4
:101538000000e00001003c000044eb000804e0006b
:1015480054003200f1088000f0fc2f000080600099
:101558000040a000f00888001e0178009e0190005d
:101568000068290081c12400d6fc07000200200081
:1015780003102400d3fc070018c0b30002f02f00aa
:10158800f37724007cfc07000000e00001003c0029
:101598000044eb000804e00032003200f10880004b
:1015a800f0fc2f00008060000050a000f0088800c8
:1015b8001e0178009e0190000068290081c1240066
:1015c800c0fc07000200200003282400bdfc07001f
:1015d80018c0b30002f02f00f377240066fc070060
:1015e8000000e00001003c000044eb000804e000bb
:1015f80010003200f1088000000320000100700094
:10160800f00888001e0178009e01900000682900fb
:1016180081c12400abfc070002002000033824002d
:10162800a8fc070056fc070000007800d0088800d6
:10163800200037001e0178009e01900000682900f4
:1016480081c124009ffc0700020020000328240019
:101658009cfc07004afc070000007800d0088800be
:10166800140037001e0178009e01900000682900d0
:1016780081c1240093fc070002002000031024000d
:1016880090fc07003efc070000007800d0088800a6
:10169800080037001e0178009e01900000682900ac
:1016a80081c1240087fc070035fc07000000780092
:1016b800d00888004f0478000080fa000000060077
:1016c8000000fa0013e1a90011e1a9001061a800c7
:1016d8001021a90081088000f0fc2f000080600024
:1016e800800888000a21ef000621ef00202620004c
:1016f8007008880000a0250060088800214280004a
:1017080080ff2f00008060000000a00020428800b9
:101718000108a9002108a80011e1a8000080fa002a
:10172800000006000000fa0005e1a9000421a90054
:101738000068a9002068a80005e1a80000002000b2
:1017480081242400f6fe07000080fa00000006004d
:101758000000fa001fe1a9001e21a9000368a900e2
:101768002368a8001fe1a800000020000100240051
:101778005fff07000080fa00000006000a00fa0078
:10178800e4014700800978006600470001087800f6
:1017980068004700020878000040eb00004f78001e
:1017a800e0cfb3001e4f68006400470010007800c7
:1017b8004880de00804078001e40780000c0680045
:1017c800004f7800640047001000780080407800df
:1017d8001e40780000c06800004f7800660047008f
:1017e800100078004880de00804078001e407800b5
:1017f80000c06800004f78006600470010007800bd
:10180800804078001e40780000c06800004f7800d3
:101818008000eb000e80e800010878000c0037001b
:101828000e80e800900078006800470010007800fb
:1018380001004000104078001e4f68000e80e8004c
:10184800100078008000e8000e80e80001087800a9
:101858000e80e800900078006600470010007800cd
:10186800808f5000eeff35001e4078000080fa009f
:10187800000006001000fa00889fbe008a1f78004a
:10188800ea014700800978006c00470001087800e9
:101898006e004700020878008f0478000f00780077
:1018a800000578006e004700100178006c004700c2
:1018b800900078006a00470010007800afff07002a
:1018c800e4004700804878006c004700100078006a
:1018d800660440008800e9006600470001087800b7
:1018e800080078000000e8000000e8000000d100cf
:1018f800800040000f007800818747000000e80062
:101908000000d10000004000e8004700800878008f
:101918006800470090007800e0cfb3008048780066
:1019280068004700100078000000e80010407800c8
:10193800804078006a004700100078004880de0088
:101948000040780000c068008040780068004700c8
:10195800100078000000e80001487800680047009f
:10196800100078000080e80010407800804078007f
:101978006a004700100078000040780000c0680046
:101988008040780068004700100078000080e80078
:1019980001487800680047001000780063004000a4
:1019a80010407800804078006c00470010007800f4
:1019b8004880de000040780000c068008040780061
:1019c8006800470010007800630040000148780074
:1019d800680047001000780064004000104078005c
:1019e800804078006c0047001000780000407800c4
:1019f80000c0680080407800680047001000780048
:101a080064004000014878000000eb00000f7800f7
:101a18000c0037009e007800658040001e017800a9
:101a2800ee004700910078008280400091407800e5
:101a38006801470012017800000041000148780061
:101a48001e0fe8006c004700100078009e00780028
:101a5800808f5000efff3500080078000000e90093
:101a6800e80047009100780000804000e40047004b
:101a7800114878008000eb000e80e800010878002b
:101a88000c00370068004700900078000e80e800de
:101a9800100078000080400011002000420107007b
:101aa8000e80e800100078008000e8000e80e80052
:101ab800010878000e80e80090007800080078009f
:101ac800808f5000efff39008a0778008907780077
:101ad8004f0578004f04be000080fa0000000600a1
:101ae8000000fa001160800080ff2f000080600075
:101af8001060880000fa20002060880023aca8004d
:101b0800238ca80011618000f03f2f000080600046
:101b180000a0a0001061880030002000206188002b
:101b2800c3aca800c38ca80011668000f03f2f004a
:101b38000080600000a0a00010668800300020002f
:101b48002066880001eca8000080fa00000006006a
:101b58001600fa00881f7800f00147008089be004f
:101b680074004700020878007400470010007800ed
:101b78000000e0003e003a0018c0b30070004700c3
:101b88006011b8009000900010007800fafa070081
:101b98000000e00001003c000044eb000804e00005
:101ba8001900320070004700100178009001900081
:101bb800828d8800938d8800808d8000918d8000b3
:101bc80002002000032224001dfc07006900070012
:101bd800008fbe0023cca90015eea80023eca800b6
:101be800808d8000918d8000020020000322240057
:101bf80013fc07005f00070002fb070000007800e5
:101c080030618800580037007000470010017800e4
:101c180090019000828d8800938d8800c08d80008f
:101c2800d18d8000020020000322240004fc07005c
:101c380050000700640147000089be0023eca9009a
:101c480015cea80023cca800808d8000918d80003f
:101c58000200200003222400f9fb070045000700ca
:101c6800e8fa070000007800306188003e0037007d
:101c780018c0b300700047006011b80090009000d1
:101c880010007800bcfa07000000e00001003c00ea
:101c98000044eb000804e0001a003200700047001e
:101ca8001001780090019000c28d8800d38d8800c3
:101cb800c08d8000d18d8000020020000322240006
:101cc800dffb07002b000700680147000089be0002
:101cd800c3cca90024eea800c3eca800c08d8000e6
:101ce800d18d80000200200003222400d4fb0700cd
:101cf80020000700c3fa070000007800306688005b
:101d0800190037007000470010017800900190001a
:101d1800c28d8800d38d8800c08d8000d18d800051
:101d28000200200003222400c5fb07001100070061
:101d38006c0147000089be00c3eca90024cea800ae
:101d4800c3cca800c08d8000d18d80000200200087
:101d580003222400bafb070006000700a9fa0700bf
:101d680000007800306688004f0478000080fa0090
:101d7800000006000400fa00881f7800008fbe00eb
:101d880018c0b3006011b8001e0078009e009000d3
:101d980079fa07000000e00001003d000044eb0074
:101da8000804e000030032001e0078009e00900046
:101db800030037001e0078009e00900001f0a2008a
:101dc8004f0478000080fa00000006000800fa00be
:101dd800881f7800008fbe00640047000288be009c
:101de80018c0b3006400470010017800900190000b
:101df8001e0078009e0090005ffa07000000e000d7
:101e080001003c000044eb000804e000030032003d
:101e18001e0078009e009000030037006400470011
:101e280090009000100078004f0478000080fa00bd
:101e3800000006000800fa00881f7800008fbe0026
:101e4800640047000288be0018c0b3006400470061
:101e580010017800900190001e0078009e0090000c
:101e680043fa07000000e000010035000044eb00e1
:101e78000804e000030032001e0078009e00900075
:101e880003003700640047009000900010007800bd
:101e98004f0478000080fa00000006000c00fa00e9
:101ea800881f7800008fbe00640047000288be00cb
:101eb800680047000488be0018c0b30068004700e7
:101ec80010017800900190001e0078009e0090009c
:101ed80029fa07000000e00001003c000044eb0084
:101ee8000804e0000400320068004700301f780052
:101ef800201778000f00370018c0b30064004700af
:101f080010017800900190001e0078009e0090005b
:101f180017fa07000000e000010035000044eb005c
:101f28000804e0000300320064004700301f780016
:101f3800201778001e0078009e0090004f0478005b
:101f48000080fa00000006000400fa00008fbe00be
:101f5800b2fd2000930424001e0078009e0090002b
:101f680058fa0700020020004333240034fb07001e
:101f78000080fa00000006000400fa00008fbe008e
:101f8800b2fd2000930424001e0078009e009000fb
:101f98002bfb0700020020004333240049fa070006
:101fa8000080fa00000006000600fa000e81e80032
:101fb8000009780064004700010878000040eb0041
:101fc800004f780055000700e400470091007800b2
:101fd800810f5000130034000040eb00004f7800e0
:101fe800070037001e80fb008e80e8009100780013
:101ff80000804000104078000c0007001e4fe800e9
:102008001e80fb00e400470091007800810f50001b
:10201800f4ff35002e0007000004e00001003a003c
:10202800220007000080fa00000006000200fa0003
:10203800004f780011818000a002210001004000bb
:102048001e487800108180000000e8001081880098
:1020580011818000f0072000808f500001003400bb
:102068002230ef000080fa00000006000200fa00ab
:10207800e1808000a002210001004000104f78009c
:10208800e08080000000e800e0808800e1808000b7
:10209800f0072000808f5000010034001c30ef0052
:1020a8001e4078000080fa00000006000200fa00d6
:1020b80010c0b3001ef0b700ecff0700004f780017
:1020c8001e80fb00201188000080fa000000060036
:1020d8000000fa001ed0bf000080fa0000000600d1
:1020e8000000fa0011818000e0808000808f50009d
:1020f8000400350011818000e080800000805000dd
:102108000400370011818000e080800000805000ca
:102118000008b0000080fa00000006000000fa0085
:10212800efff070001082000008050000080fa003f
:10213800000006000000fa0021e3a9002143a800de
:1021480001198000f0cf2f0000806000001988007e
:102158002043a90001198000000e20000100700032
:102168000019880011198000f0ff2100008060002c
:10217800101988002343a80011198000f0cf2f0000
:1021880000806000101988001119800030f82f00b5
:10219800008060000030a000101988002203a90008
:1021a8002223a90025e3a900f0c0b30024e3b70067
:1021b80021198000f00f2e008080600000f02000c0
:1021c80001007000201988003303a9002e0ea80012
:1021d8002f6ea8006f2ea80030c3a8003163a80096
:1021e8002e03a8004119800000fc2f000080600029
:1021f8004019880028e3a90001a8a90021a8a8007f
:1022080021e3a8000080fa00000006000000fa00a0
:102218002023a8000080fa00000006000000fa0051
:10222800200021000080fa00000006000000fa00eb
:102238000ad0bf000080fa00000006000000fa0083
:102248000a70ef000080fa00000006000200fa00a1
:10225800004f7800390007000000e0000c0034004f
:1022680021818000a00a2100010040001e4878005a
:10227800208180000000e800208188002181800002
:10228800f0072000808f5000010034002430ef0058
:102298000080fa00000006000200fa003181800088
:1022a800a00a210001004000104f78003081800012
:1022b8000000e8003081880031818000f0072000ac
:1022c800808f5000010034002630ef001e40780057
:1022d8000080fa00000006000000fa00218180005a
:1022e80030818000808f50000200320010c0b3009f
:1022f800010037000040eb000080fa0000000600f3
:102308000000fa002181800030818000808f500019
:102318000400350021818000308180000080500059
:102328000400370021818000308180000080500047
:102338000008b0000080fa00000006000000fa0063
:10234800efff070001082000008050000080fa001d
:10235800000006000000fa002002a9000111800018
:1023680090ff2f00008060000011880020a2a900c3
:102378002062a800500520004011880023a2a9006f
:1023880023e2a9000188a9002188a8001111800072
:10239800f0f32f0000806000101188000168a90088
:1023a8002168a80021e2a8002342a8000080fa00c2
:1023b800000006000600fa000e81e8000009780017
:1023c80064004700010878000040eb00004f7800e7
:1023d8000040eb00004f78001100370000000000bb
:1023e8001111800000202000008060000000e00043
:1023f800fbff3a000e80e8001000780010407800db
:102408000080fb00201188000e80e8001000780092
:102418008000e8000e80e800010878001e4fe80000
:102428001e80fb00e400470091007800810f5000f7
:0c243800eaff35000080fa0000000600fa
:020000040000fa
:102444001810000004000000800000000c100000c0
:102454000600000080000000aa1100001e00000019
:102464008000000020100000020000008200000034
:1024740001000000001000000c00000080000000bb
:102484002a100000800000008000000022100000dc
:102494000200000082000000010000001c10000087
:1024a4000400000080000000aa100000800000006a
:1024b40080000000241000000200000082000000e0
:1024c400010000002610000002000000800000004f
:1024d4002a1100008000000080000000121000009b
:1024e4000600000080000000281000000200000028
:0824f400800000000000000060
:020000040000fa
:1024fc000000fa000e2eef001e2eef002e2eef0025
:10250c003e2eef004e2eef005e2eef006e2eef00f3
:10251c00214ea90060cea90060eea90011cea90041
:10252c0011eea90020cea90020eea900103a8000df
:10253c00000178000260a1006004200071052000f9
:10254c002374200080497800814978008249780002
:10255c002136800000f82f00008060008001b3005d
:10256c00203688001134800000fc2f0000806000b1
:10257c000000a00010348800103a800000017800a0
:10258c000260a0006004200071052000237420006c
:10259c008049780081497800824978000080fa00ef
:1025ac00000006000000fa00f0032000303a88001a
:1025bc00213a8000f0f32f0000806000203a880060
:1025cc00213a800000fe2f00008060000000a00077
:1025dc00203a88001200200080072000a10920006a
:1025ec003374200080497800814978008249780052
:1025fc00103a8000000178000200a0006004200066
:10260c0071052000237420008049780081497800ee
:10261c008249780000000000113a80000000270079
:10262c008080600000002100808f5000faff3a008b
:10263c0000000000113a80000002200000806000c1
:10264c000000e000fbff32000080fa0000000600f2
:10265c000e00fa00d3ff0700a5ff070030fc0700af
:10266c0016fc070039fc07001cfd0700b0fe070034
:10267c0037ff070012002000000020000112240088
:10268c0032fd07000001eb000000200001122400c5
:10269c002efd070064cea80064eea800254ea8000d
:1026ac006198280006000900311f7800ee00b10087
:1026bc000e00780000017800e100200000082000e6
:1026cc006bfc070000a0250021262000010007005c
:0426dc00f3ff3700d1
:020000040000fa
:1026e000f03fb1000180b10006003500ee030900a3
:1026f00000000000403fb1000180b100fbff3d0041
:102700001000b000203fb00002003500008009003a
:082710000000000000000600bb
:020000040000fa
:02000004000af0
:04afe000cfff00009f
:020000040000fa
:02000004000af0
:04afe400f7ff000073
:020000040000fa
:02000004000af0
:04afe8007fff0000e7
:020000040000fa
:02000004000af0
:04afec005fff000003
:020000040000fa
:02000004000af0
:04aff00038ff000026
:020000040000fa
:02000004000af0
:04aff400ffffff005c
:00000001FF
